:0300000002086C87
:0C086C00787FE4F6D8FD75810702085B78
:1008490048454C4C4F2046524F4D20383035310DDC
:020859000A0093
:0C087800758920758DFD759850D28E2278
:080884008F993099FDC2992201
:1008360012081DFF600C120884740129F9E43AFAC3
:0308460080EE221F
:10080000E4FFFEE4FDFC0DBD00010CBC04F8BDFBE3
:0C081000F50FBF00010EBE01EABFF4E7C7
:01081C0022B9
:10085B001208787BFF7A0879491208361208008053
:01086B00F29A
:10081D00BB010689828A83E0225002E722BBFE02D9
:09082D00E32289828A83E493220C
:00000001FF
